{
  "contractName": "GenericNft",
  "abi": [
    {
      "inputs": [
        {
          "internalType": "uint256",
          "name": "maxSupply",
          "type": "uint256"
        },
        {
          "internalType": "string",
          "name": "name",
          "type": "string"
        },
        {
          "internalType": "string",
          "name": "tokenId",
          "type": "string"
        }
      ],
      "stateMutability": "nonpayable",
      "type": "constructor"
    },
    {
      "anonymous": false,
      "inputs": [
        {
          "indexed": true,
          "internalType": "address",
          "name": "owner",
          "type": "address"
        },
        {
          "indexed": true,
          "internalType": "address",
          "name": "approved",
          "type": "address"
        },
        {
          "indexed": true,
          "internalType": "uint256",
          "name": "tokenId",
          "type": "uint256"
        }
      ],
      "name": "Approval",
      "type": "event"
    },
    {
      "anonymous": false,
      "inputs": [
        {
          "indexed": true,
          "internalType": "address",
          "name": "owner",
          "type": "address"
        },
        {
          "indexed": true,
          "internalType": "address",
          "name": "operator",
          "type": "address"
        },
        {
          "indexed": false,
          "internalType": "bool",
          "name": "approved",
          "type": "bool"
        }
      ],
      "name": "ApprovalForAll",
      "type": "event"
    },
    {
      "anonymous": false,
      "inputs": [
        {
          "indexed": true,
          "internalType": "address",
          "name": "previousOwner",
          "type": "address"
        },
        {
          "indexed": true,
          "internalType": "address",
          "name": "newOwner",
          "type": "address"
        }
      ],
      "name": "OwnershipTransferred",
      "type": "event"
    },
    {
      "anonymous": false,
      "inputs": [
        {
          "indexed": true,
          "internalType": "address",
          "name": "from",
          "type": "address"
        },
        {
          "indexed": true,
          "internalType": "address",
          "name": "to",
          "type": "address"
        },
        {
          "indexed": true,
          "internalType": "uint256",
          "name": "tokenId",
          "type": "uint256"
        }
      ],
      "name": "Transfer",
      "type": "event"
    },
    {
      "inputs": [
        {
          "internalType": "address",
          "name": "to",
          "type": "address"
        },
        {
          "internalType": "uint256",
          "name": "tokenId",
          "type": "uint256"
        }
      ],
      "name": "approve",
      "outputs": [],
      "stateMutability": "nonpayable",
      "type": "function"
    },
    {
      "inputs": [
        {
          "internalType": "address",
          "name": "owner",
          "type": "address"
        }
      ],
      "name": "balanceOf",
      "outputs": [
        {
          "internalType": "uint256",
          "name": "",
          "type": "uint256"
        }
      ],
      "stateMutability": "view",
      "type": "function",
      "constant": true
    },
    {
      "inputs": [
        {
          "internalType": "uint256",
          "name": "tokenId",
          "type": "uint256"
        }
      ],
      "name": "getApproved",
      "outputs": [
        {
          "internalType": "address",
          "name": "",
          "type": "address"
        }
      ],
      "stateMutability": "view",
      "type": "function",
      "constant": true
    },
    {
      "inputs": [
        {
          "internalType": "address",
          "name": "owner",
          "type": "address"
        },
        {
          "internalType": "address",
          "name": "operator",
          "type": "address"
        }
      ],
      "name": "isApprovedForAll",
      "outputs": [
        {
          "internalType": "bool",
          "name": "",
          "type": "bool"
        }
      ],
      "stateMutability": "view",
      "type": "function",
      "constant": true
    },
    {
      "inputs": [],
      "name": "name",
      "outputs": [
        {
          "internalType": "string",
          "name": "",
          "type": "string"
        }
      ],
      "stateMutability": "view",
      "type": "function",
      "constant": true
    },
    {
      "inputs": [],
      "name": "owner",
      "outputs": [
        {
          "internalType": "address",
          "name": "",
          "type": "address"
        }
      ],
      "stateMutability": "view",
      "type": "function",
      "constant": true
    },
    {
      "inputs": [
        {
          "internalType": "uint256",
          "name": "tokenId",
          "type": "uint256"
        }
      ],
      "name": "ownerOf",
      "outputs": [
        {
          "internalType": "address",
          "name": "",
          "type": "address"
        }
      ],
      "stateMutability": "view",
      "type": "function",
      "constant": true
    },
    {
      "inputs": [],
      "name": "renounceOwnership",
      "outputs": [],
      "stateMutability": "nonpayable",
      "type": "function"
    },
    {
      "inputs": [
        {
          "internalType": "address",
          "name": "from",
          "type": "address"
        },
        {
          "internalType": "address",
          "name": "to",
          "type": "address"
        },
        {
          "internalType": "uint256",
          "name": "tokenId",
          "type": "uint256"
        }
      ],
      "name": "safeTransferFrom",
      "outputs": [],
      "stateMutability": "nonpayable",
      "type": "function"
    },
    {
      "inputs": [
        {
          "internalType": "address",
          "name": "from",
          "type": "address"
        },
        {
          "internalType": "address",
          "name": "to",
          "type": "address"
        },
        {
          "internalType": "uint256",
          "name": "tokenId",
          "type": "uint256"
        },
        {
          "internalType": "bytes",
          "name": "_data",
          "type": "bytes"
        }
      ],
      "name": "safeTransferFrom",
      "outputs": [],
      "stateMutability": "nonpayable",
      "type": "function"
    },
    {
      "inputs": [
        {
          "internalType": "address",
          "name": "operator",
          "type": "address"
        },
        {
          "internalType": "bool",
          "name": "approved",
          "type": "bool"
        }
      ],
      "name": "setApprovalForAll",
      "outputs": [],
      "stateMutability": "nonpayable",
      "type": "function"
    },
    {
      "inputs": [
        {
          "internalType": "bytes4",
          "name": "interfaceId",
          "type": "bytes4"
        }
      ],
      "name": "supportsInterface",
      "outputs": [
        {
          "internalType": "bool",
          "name": "",
          "type": "bool"
        }
      ],
      "stateMutability": "view",
      "type": "function",
      "constant": true
    },
    {
      "inputs": [],
      "name": "symbol",
      "outputs": [
        {
          "internalType": "string",
          "name": "",
          "type": "string"
        }
      ],
      "stateMutability": "view",
      "type": "function",
      "constant": true
    },
    {
      "inputs": [
        {
          "internalType": "uint256",
          "name": "tokenId",
          "type": "uint256"
        }
      ],
      "name": "tokenURI",
      "outputs": [
        {
          "internalType": "string",
          "name": "",
          "type": "string"
        }
      ],
      "stateMutability": "view",
      "type": "function",
      "constant": true
    },
    {
      "inputs": [
        {
          "internalType": "address",
          "name": "from",
          "type": "address"
        },
        {
          "internalType": "address",
          "name": "to",
          "type": "address"
        },
        {
          "internalType": "uint256",
          "name": "tokenId",
          "type": "uint256"
        }
      ],
      "name": "transferFrom",
      "outputs": [],
      "stateMutability": "nonpayable",
      "type": "function"
    },
    {
      "inputs": [
        {
          "internalType": "address",
          "name": "newOwner",
          "type": "address"
        }
      ],
      "name": "transferOwnership",
      "outputs": [],
      "stateMutability": "nonpayable",
      "type": "function"
    },
    {
      "inputs": [
        {
          "internalType": "address",
          "name": "recipient",
          "type": "address"
        },
        {
          "internalType": "string",
          "name": "tokenURI",
          "type": "string"
        },
        {
          "internalType": "uint256",
          "name": "assetId",
          "type": "uint256"
        }
      ],
      "name": "mintNFT",
      "outputs": [
        {
          "internalType": "uint256",
          "name": "",
          "type": "uint256"
        }
      ],
      "stateMutability": "nonpayable",
      "type": "function"
    },
    {
      "inputs": [
        {
          "internalType": "uint256",
          "name": "assetId",
          "type": "uint256"
        },
        {
          "internalType": "string",
          "name": "tokenURI",
          "type": "string"
        }
      ],
      "name": "setTokenURI",
      "outputs": [],
      "stateMutability": "nonpayable",
      "type": "function"
    }
  ],
  "bytecode": "0x60806040523480156200001157600080fd5b50604051620037bf380380620037bf833981810160405281019062000037919062000420565b818181600090805190602001906200005192919062000198565b5080600190805190602001906200006a92919062000198565b5050506200008d62000081620000b460201b60201c565b620000bc60201b60201c565b82600981905550620000ab60086200018260201b62000f731760201c565b5050506200051e565b600033905090565b6000600760009054906101000a900473ffffffffffffffffffffffffffffffffffffffff16905081600760006101000a81548173ffffffffffffffffffffffffffffffffffffffff021916908373ffffffffffffffffffffffffffffffffffffffff1602179055508173ffffffffffffffffffffffffffffffffffffffff168173ffffffffffffffffffffffffffffffffffffffff167f8be0079c531659141344cd1fd0a4f28419497f9722a3daafe3b4186f6b6457e060405160405180910390a35050565b6001816000016000828254019250508190555050565b828054620001a690620004e9565b90600052602060002090601f016020900481019282620001ca576000855562000216565b82601f10620001e557805160ff191683800117855562000216565b8280016001018555821562000216579182015b8281111562000215578251825591602001919060010190620001f8565b5b50905062000225919062000229565b5090565b5b80821115620002445760008160009055506001016200022a565b5090565b6000604051905090565b600080fd5b600080fd5b6000819050919050565b62000271816200025c565b81146200027d57600080fd5b50565b600081519050620002918162000266565b92915050565b600080fd5b600080fd5b6000601f19601f8301169050919050565b7f4e487b7100000000000000000000000000000000000000000000000000000000600052604160045260246000fd5b620002ec82620002a1565b810181811067ffffffffffffffff821117156200030e576200030d620002b2565b5b80604052505050565b60006200032362000248565b9050620003318282620002e1565b919050565b600067ffffffffffffffff821115620003545762000353620002b2565b5b6200035f82620002a1565b9050602081019050919050565b60005b838110156200038c5780820151818401526020810190506200036f565b838111156200039c576000848401525b50505050565b6000620003b9620003b38462000336565b62000317565b905082815260208101848484011115620003d857620003d76200029c565b5b620003e58482856200036c565b509392505050565b600082601f83011262000405576200040462000297565b5b815162000417848260208601620003a2565b91505092915050565b6000806000606084860312156200043c576200043b62000252565b5b60006200044c8682870162000280565b935050602084015167ffffffffffffffff81111562000470576200046f62000257565b5b6200047e86828701620003ed565b925050604084015167ffffffffffffffff811115620004a257620004a162000257565b5b620004b086828701620003ed565b9150509250925092565b7f4e487b7100000000000000000000000000000000000000000000000000000000600052602260045260246000fd5b600060028204905060018216806200050257607f821691505b602082108103620005185762000517620004ba565b5b50919050565b613291806200052e6000396000f3fe608060405234801561001057600080fd5b50600436106101165760003560e01c806370a08231116100a2578063a22cb46511610071578063a22cb465146102df578063b88d4fde146102fb578063c87b56dd14610317578063e985e9c514610347578063f2fde38b1461037757610116565b806370a0823114610269578063715018a6146102995780638da5cb5b146102a357806395d89b41146102c157610116565b8063095ea7b3116100e9578063095ea7b3146101c9578063162094c4146101e557806323b872dd1461020157806342842e0e1461021d5780636352211e1461023957610116565b806301ffc9a71461011b57806306fdde031461014b578063081812fc1461016957806308598df014610199575b600080fd5b61013560048036038101906101309190611e2e565b610393565b6040516101429190611e76565b60405180910390f35b610153610475565b6040516101609190611f2a565b60405180910390f35b610183600480360381019061017e9190611f82565b610507565b6040516101909190611ff0565b60405180910390f35b6101b360048036038101906101ae919061209c565b61058c565b6040516101c0919061211f565b60405180910390f35b6101e360048036038101906101de919061213a565b6106c5565b005b6101ff60048036038101906101fa919061217a565b6107dc565b005b61021b600480360381019061021691906121da565b6108f3565b005b610237600480360381019061023291906121da565b610953565b005b610253600480360381019061024e9190611f82565b610973565b6040516102609190611ff0565b60405180910390f35b610283600480360381019061027e919061222d565b610a24565b604051610290919061211f565b60405180910390f35b6102a1610adb565b005b6102ab610b63565b6040516102b89190611ff0565b60405180910390f35b6102c9610b8d565b6040516102d69190611f2a565b60405180910390f35b6102f960048036038101906102f49190612286565b610c1f565b005b610315600480360381019061031091906123f6565b610c35565b005b610331600480360381019061032c9190611f82565b610c97565b60405161033e9190611f2a565b60405180910390f35b610361600480360381019061035c9190612479565b610de8565b60405161036e9190611e76565b60405180910390f35b610391600480360381019061038c919061222d565b610e7c565b005b60007f80ac58cd000000000000000000000000000000000000000000000000000000007bffffffffffffffffffffffffffffffffffffffffffffffffffffffff1916827bffffffffffffffffffffffffffffffffffffffffffffffffffffffff1916148061045e57507f5b5e139f000000000000000000000000000000000000000000000000000000007bffffffffffffffffffffffffffffffffffffffffffffffffffffffff1916827bffffffffffffffffffffffffffffffffffffffffffffffffffffffff1916145b8061046e575061046d82610f89565b5b9050919050565b606060008054610484906124e8565b80601f01602080910402602001604051908101604052809291908181526020018280546104b0906124e8565b80156104fd5780601f106104d2576101008083540402835291602001916104fd565b820191906000526020600020905b8154815290600101906020018083116104e057829003601f168201915b5050505050905090565b600061051282610ff3565b610551576040517f08c379a00000000000000000000000000000000000000000000000000000000081526004016105489061258b565b60405180910390fd5b6004600083815260200190815260200160002060009054906101000a900473ffffffffffffffffffffffffffffffffffffffff169050919050565b600061059661105f565b73ffffffffffffffffffffffffffffffffffffffff166105b4610b63565b73ffffffffffffffffffffffffffffffffffffffff161461060a576040517f08c379a0000000000000000000000000000000000000000000000000000000008152600401610601906125f7565b60405180910390fd5b6106146008611067565b6009541015610658576040517f08c379a000000000000000000000000000000000000000000000000000000000815260040161064f90612689565b60405180910390fd5b6106626008610f73565b61066c8583611075565b6106ba8285858080601f016020809104026020016040519081016040528093929190818152602001838380828437600081840152601f19601f8201169050808301925050505050505061124e565b819050949350505050565b60006106d082610973565b90508073ffffffffffffffffffffffffffffffffffffffff168373ffffffffffffffffffffffffffffffffffffffff1603610740576040517f08c379a00000000000000000000000000000000000000000000000000000000081526004016107379061271b565b60405180910390fd5b8073ffffffffffffffffffffffffffffffffffffffff1661075f61105f565b73ffffffffffffffffffffffffffffffffffffffff16148061078e575061078d8161078861105f565b610de8565b5b6107cd576040517f08c379a00000000000000000000000000000000000000000000000000000000081526004016107c4906127ad565b60405180910390fd5b6107d783836112c2565b505050565b6107e461105f565b73ffffffffffffffffffffffffffffffffffffffff16610802610b63565b73ffffffffffffffffffffffffffffffffffffffff1614610858576040517f08c379a000000000000000000000000000000000000000000000000000000000815260040161084f906125f7565b60405180910390fd5b61086183610ff3565b6108a0576040517f08c379a00000000000000000000000000000000000000000000000000000000081526004016108979061283f565b60405180910390fd5b6108ee8383838080601f016020809104026020016040519081016040528093929190818152602001838380828437600081840152601f19601f8201169050808301925050505050505061124e565b505050565b6109046108fe61105f565b8261137b565b610943576040517f08c379a000000000000000000000000000000000000000000000000000000000815260040161093a906128d1565b60405180910390fd5b61094e838383611459565b505050565b61096e83838360405180602001604052806000815250610c35565b505050565b6000806002600084815260200190815260200160002060009054906101000a900473ffffffffffffffffffffffffffffffffffffffff169050600073ffffffffffffffffffffffffffffffffffffffff168173ffffffffffffffffffffffffffffffffffffffff1603610a1b576040517f08c379a0000000000000000000000000000000000000000000000000000000008152600401610a1290612963565b60405180910390fd5b80915050919050565b60008073ffffffffffffffffffffffffffffffffffffffff168273ffffffffffffffffffffffffffffffffffffffff1603610a94576040517f08c379a0000000000000000000000000000000000000000000000000000000008152600401610a8b906129f5565b60405180910390fd5b600360008373ffffffffffffffffffffffffffffffffffffffff1673ffffffffffffffffffffffffffffffffffffffff168152602001908152602001600020549050919050565b610ae361105f565b73ffffffffffffffffffffffffffffffffffffffff16610b01610b63565b73ffffffffffffffffffffffffffffffffffffffff1614610b57576040517f08c379a0000000000000000000000000000000000000000000000000000000008152600401610b4e906125f7565b60405180910390fd5b610b6160006116bf565b565b6000600760009054906101000a900473ffffffffffffffffffffffffffffffffffffffff16905090565b606060018054610b9c906124e8565b80601f0160208091040260200160405190810160405280929190818152602001828054610bc8906124e8565b8015610c155780601f10610bea57610100808354040283529160200191610c15565b820191906000526020600020905b815481529060010190602001808311610bf857829003601f168201915b5050505050905090565b610c31610c2a61105f565b8383611785565b5050565b610c46610c4061105f565b8361137b565b610c85576040517f08c379a0000000000000000000000000000000000000000000000000000000008152600401610c7c906128d1565b60405180910390fd5b610c91848484846118f1565b50505050565b6060610ca282610ff3565b610ce1576040517f08c379a0000000000000000000000000000000000000000000000000000000008152600401610cd890612a87565b60405180910390fd5b6000600660008481526020019081526020016000208054610d01906124e8565b80601f0160208091040260200160405190810160405280929190818152602001828054610d2d906124e8565b8015610d7a5780601f10610d4f57610100808354040283529160200191610d7a565b820191906000526020600020905b815481529060010190602001808311610d5d57829003601f168201915b505050505090506000610d8b61194d565b90506000815103610da0578192505050610de3565b600082511115610dd5578082604051602001610dbd929190612ae3565b60405160208183030381529060405292505050610de3565b610dde84611964565b925050505b919050565b6000600560008473ffffffffffffffffffffffffffffffffffffffff1673ffffffffffffffffffffffffffffffffffffffff16815260200190815260200160002060008373ffffffffffffffffffffffffffffffffffffffff1673ffffffffffffffffffffffffffffffffffffffff16815260200190815260200160002060009054906101000a900460ff16905092915050565b610e8461105f565b73ffffffffffffffffffffffffffffffffffffffff16610ea2610b63565b73ffffffffffffffffffffffffffffffffffffffff1614610ef8576040517f08c379a0000000000000000000000000000000000000000000000000000000008152600401610eef906125f7565b60405180910390fd5b600073ffffffffffffffffffffffffffffffffffffffff168173ffffffffffffffffffffffffffffffffffffffff1603610f67576040517f08c379a0000000000000000000000000000000000000000000000000000000008152600401610f5e90612b79565b60405180910390fd5b610f70816116bf565b50565b6001816000016000828254019250508190555050565b60007f01ffc9a7000000000000000000000000000000000000000000000000000000007bffffffffffffffffffffffffffffffffffffffffffffffffffffffff1916827bffffffffffffffffffffffffffffffffffffffffffffffffffffffff1916149050919050565b60008073ffffffffffffffffffffffffffffffffffffffff166002600084815260200190815260200160002060009054906101000a900473ffffffffffffffffffffffffffffffffffffffff1673ffffffffffffffffffffffffffffffffffffffff1614159050919050565b600033905090565b600081600001549050919050565b600073ffffffffffffffffffffffffffffffffffffffff168273ffffffffffffffffffffffffffffffffffffffff16036110e4576040517f08c379a00000000000000000000000000000000000000000000000000000000081526004016110db90612be5565b60405180910390fd5b6110ed81610ff3565b1561112d576040517f08c379a000000000000000000000000000000000000000000000000000000000815260040161112490612c51565b60405180910390fd5b61113960008383611a0b565b6001600360008473ffffffffffffffffffffffffffffffffffffffff1673ffffffffffffffffffffffffffffffffffffffff16815260200190815260200160002060008282546111899190612ca0565b92505081905550816002600083815260200190815260200160002060006101000a81548173ffffffffffffffffffffffffffffffffffffffff021916908373ffffffffffffffffffffffffffffffffffffffff160217905550808273ffffffffffffffffffffffffffffffffffffffff16600073ffffffffffffffffffffffffffffffffffffffff167fddf252ad1be2c89b69c2b068fc378daa952ba7f163c4a11628f55a4df523b3ef60405160405180910390a461124a60008383611a10565b5050565b61125782610ff3565b611296576040517f08c379a000000000000000000000000000000000000000000000000000000000815260040161128d9061283f565b60405180910390fd5b806006600084815260200190815260200160002090805190602001906112bd929190611d1f565b505050565b816004600083815260200190815260200160002060006101000a81548173ffffffffffffffffffffffffffffffffffffffff021916908373ffffffffffffffffffffffffffffffffffffffff160217905550808273ffffffffffffffffffffffffffffffffffffffff1661133583610973565b73ffffffffffffffffffffffffffffffffffffffff167f8c5be1e5ebec7d5bd14f71427d1e84f3dd0314c0f7b2291e5b200ac8c7c3b92560405160405180910390a45050565b600061138682610ff3565b6113c5576040517f08c379a00000000000000000000000000000000000000000000000000000000081526004016113bc90612d68565b60405180910390fd5b60006113d083610973565b90508073ffffffffffffffffffffffffffffffffffffffff168473ffffffffffffffffffffffffffffffffffffffff16148061143f57508373ffffffffffffffffffffffffffffffffffffffff1661142784610507565b73ffffffffffffffffffffffffffffffffffffffff16145b80611450575061144f8185610de8565b5b91505092915050565b8273ffffffffffffffffffffffffffffffffffffffff1661147982610973565b73ffffffffffffffffffffffffffffffffffffffff16146114cf576040517f08c379a00000000000000000000000000000000000000000000000000000000081526004016114c690612dfa565b60405180910390fd5b600073ffffffffffffffffffffffffffffffffffffffff168273ffffffffffffffffffffffffffffffffffffffff160361153e576040517f08c379a000000000000000000000000000000000000000000000000000000000815260040161153590612e8c565b60405180910390fd5b611549838383611a0b565b6115546000826112c2565b6001600360008573ffffffffffffffffffffffffffffffffffffffff1673ffffffffffffffffffffffffffffffffffffffff16815260200190815260200160002060008282546115a49190612eac565b925050819055506001600360008473ffffffffffffffffffffffffffffffffffffffff1673ffffffffffffffffffffffffffffffffffffffff16815260200190815260200160002060008282546115fb9190612ca0565b92505081905550816002600083815260200190815260200160002060006101000a81548173ffffffffffffffffffffffffffffffffffffffff021916908373ffffffffffffffffffffffffffffffffffffffff160217905550808273ffffffffffffffffffffffffffffffffffffffff168473ffffffffffffffffffffffffffffffffffffffff167fddf252ad1be2c89b69c2b068fc378daa952ba7f163c4a11628f55a4df523b3ef60405160405180910390a46116ba838383611a10565b505050565b6000600760009054906101000a900473ffffffffffffffffffffffffffffffffffffffff16905081600760006101000a81548173ffffffffffffffffffffffffffffffffffffffff021916908373ffffffffffffffffffffffffffffffffffffffff1602179055508173ffffffffffffffffffffffffffffffffffffffff168173ffffffffffffffffffffffffffffffffffffffff167f8be0079c531659141344cd1fd0a4f28419497f9722a3daafe3b4186f6b6457e060405160405180910390a35050565b8173ffffffffffffffffffffffffffffffffffffffff168373ffffffffffffffffffffffffffffffffffffffff16036117f3576040517f08c379a00000000000000000000000000000000000000000000000000000000081526004016117ea90612f2c565b60405180910390fd5b80600560008573ffffffffffffffffffffffffffffffffffffffff1673ffffffffffffffffffffffffffffffffffffffff16815260200190815260200160002060008473ffffffffffffffffffffffffffffffffffffffff1673ffffffffffffffffffffffffffffffffffffffff16815260200190815260200160002060006101000a81548160ff0219169083151502179055508173ffffffffffffffffffffffffffffffffffffffff168373ffffffffffffffffffffffffffffffffffffffff167f17307eab39ab6107e8899845ad3d59bd9653f200f220920489ca2b5937696c31836040516118e49190611e76565b60405180910390a3505050565b6118fc848484611459565b61190884848484611a15565b611947576040517f08c379a000000000000000000000000000000000000000000000000000000000815260040161193e90612fbe565b60405180910390fd5b50505050565b606060405180602001604052806000815250905090565b606061196f82610ff3565b6119ae576040517f08c379a00000000000000000000000000000000000000000000000000000000081526004016119a590613050565b60405180910390fd5b60006119b861194d565b905060008151116119d85760405180602001604052806000815250611a03565b806119e284611b9c565b6040516020016119f3929190612ae3565b6040516020818303038152906040525b915050919050565b505050565b505050565b6000611a368473ffffffffffffffffffffffffffffffffffffffff16611cfc565b15611b8f578373ffffffffffffffffffffffffffffffffffffffff1663150b7a02611a5f61105f565b8786866040518563ffffffff1660e01b8152600401611a8194939291906130c5565b6020604051808303816000875af1925050508015611abd57506040513d601f19601f82011682018060405250810190611aba9190613126565b60015b611b3f573d8060008114611aed576040519150601f19603f3d011682016040523d82523d6000602084013e611af2565b606091505b506000815103611b37576040517f08c379a0000000000000000000000000000000000000000000000000000000008152600401611b2e90612fbe565b60405180910390fd5b805181602001fd5b63150b7a0260e01b7bffffffffffffffffffffffffffffffffffffffffffffffffffffffff1916817bffffffffffffffffffffffffffffffffffffffffffffffffffffffff191614915050611b94565b600190505b949350505050565b606060008203611be3576040518060400160405280600181526020017f30000000000000000000000000000000000000000000000000000000000000008152509050611cf7565b600082905060005b60008214611c15578080611bfe90613153565b915050600a82611c0e91906131ca565b9150611beb565b60008167ffffffffffffffff811115611c3157611c306122cb565b5b6040519080825280601f01601f191660200182016040528015611c635781602001600182028036833780820191505090505b5090505b60008514611cf057600182611c7c9190612eac565b9150600a85611c8b91906131fb565b6030611c979190612ca0565b60f81b818381518110611cad57611cac61322c565b5b60200101907effffffffffffffffffffffffffffffffffffffffffffffffffffffffffffff1916908160001a905350600a85611ce991906131ca565b9450611c67565b8093505050505b919050565b6000808273ffffffffffffffffffffffffffffffffffffffff163b119050919050565b828054611d2b906124e8565b90600052602060002090601f016020900481019282611d4d5760008555611d94565b82601f10611d6657805160ff1916838001178555611d94565b82800160010185558215611d94579182015b82811115611d93578251825591602001919060010190611d78565b5b509050611da19190611da5565b5090565b5b80821115611dbe576000816000905550600101611da6565b5090565b6000604051905090565b600080fd5b600080fd5b60007fffffffff0000000000000000000000000000000000000000000000000000000082169050919050565b611e0b81611dd6565b8114611e1657600080fd5b50565b600081359050611e2881611e02565b92915050565b600060208284031215611e4457611e43611dcc565b5b6000611e5284828501611e19565b91505092915050565b60008115159050919050565b611e7081611e5b565b82525050565b6000602082019050611e8b6000830184611e67565b92915050565b600081519050919050565b600082825260208201905092915050565b60005b83811015611ecb578082015181840152602081019050611eb0565b83811115611eda576000848401525b50505050565b6000601f19601f8301169050919050565b6000611efc82611e91565b611f068185611e9c565b9350611f16818560208601611ead565b611f1f81611ee0565b840191505092915050565b60006020820190508181036000830152611f448184611ef1565b905092915050565b6000819050919050565b611f5f81611f4c565b8114611f6a57600080fd5b50565b600081359050611f7c81611f56565b92915050565b600060208284031215611f9857611f97611dcc565b5b6000611fa684828501611f6d565b91505092915050565b600073ffffffffffffffffffffffffffffffffffffffff82169050919050565b6000611fda82611faf565b9050919050565b611fea81611fcf565b82525050565b60006020820190506120056000830184611fe1565b92915050565b61201481611fcf565b811461201f57600080fd5b50565b6000813590506120318161200b565b92915050565b600080fd5b600080fd5b600080fd5b60008083601f84011261205c5761205b612037565b5b8235905067ffffffffffffffff8111156120795761207861203c565b5b60208301915083600182028301111561209557612094612041565b5b9250929050565b600080600080606085870312156120b6576120b5611dcc565b5b60006120c487828801612022565b945050602085013567ffffffffffffffff8111156120e5576120e4611dd1565b5b6120f187828801612046565b9350935050604061210487828801611f6d565b91505092959194509250565b61211981611f4c565b82525050565b60006020820190506121346000830184612110565b92915050565b6000806040838503121561215157612150611dcc565b5b600061215f85828601612022565b925050602061217085828601611f6d565b9150509250929050565b60008060006040848603121561219357612192611dcc565b5b60006121a186828701611f6d565b935050602084013567ffffffffffffffff8111156121c2576121c1611dd1565b5b6121ce86828701612046565b92509250509250925092565b6000806000606084860312156121f3576121f2611dcc565b5b600061220186828701612022565b935050602061221286828701612022565b925050604061222386828701611f6d565b9150509250925092565b60006020828403121561224357612242611dcc565b5b600061225184828501612022565b91505092915050565b61226381611e5b565b811461226e57600080fd5b50565b6000813590506122808161225a565b92915050565b6000806040838503121561229d5761229c611dcc565b5b60006122ab85828601612022565b92505060206122bc85828601612271565b9150509250929050565b600080fd5b7f4e487b7100000000000000000000000000000000000000000000000000000000600052604160045260246000fd5b61230382611ee0565b810181811067ffffffffffffffff82111715612322576123216122cb565b5b80604052505050565b6000612335611dc2565b905061234182826122fa565b919050565b600067ffffffffffffffff821115612361576123606122cb565b5b61236a82611ee0565b9050602081019050919050565b82818337600083830152505050565b600061239961239484612346565b61232b565b9050828152602081018484840111156123b5576123b46122c6565b5b6123c0848285612377565b509392505050565b600082601f8301126123dd576123dc612037565b5b81356123ed848260208601612386565b91505092915050565b600080600080608085870312156124105761240f611dcc565b5b600061241e87828801612022565b945050602061242f87828801612022565b935050604061244087828801611f6d565b925050606085013567ffffffffffffffff81111561246157612460611dd1565b5b61246d878288016123c8565b91505092959194509250565b600080604083850312156124905761248f611dcc565b5b600061249e85828601612022565b92505060206124af85828601612022565b9150509250929050565b7f4e487b7100000000000000000000000000000000000000000000000000000000600052602260045260246000fd5b6000600282049050600182168061250057607f821691505b602082108103612513576125126124b9565b5b50919050565b7f4552433732313a20617070726f76656420717565727920666f72206e6f6e657860008201527f697374656e7420746f6b656e0000000000000000000000000000000000000000602082015250565b6000612575602c83611e9c565b915061258082612519565b604082019050919050565b600060208201905081810360008301526125a481612568565b9050919050565b7f4f776e61626c653a2063616c6c6572206973206e6f7420746865206f776e6572600082015250565b60006125e1602083611e9c565b91506125ec826125ab565b602082019050919050565b60006020820190508181036000830152612610816125d4565b9050919050565b7f5468652074656d706c6174652773206d617820737570706c792068617320616c60008201527f7265616479206265656e20726561636865640000000000000000000000000000602082015250565b6000612673603283611e9c565b915061267e82612617565b604082019050919050565b600060208201905081810360008301526126a281612666565b9050919050565b7f4552433732313a20617070726f76616c20746f2063757272656e74206f776e6560008201527f7200000000000000000000000000000000000000000000000000000000000000602082015250565b6000612705602183611e9c565b9150612710826126a9565b604082019050919050565b60006020820190508181036000830152612734816126f8565b9050919050565b7f4552433732313a20617070726f76652063616c6c6572206973206e6f74206f7760008201527f6e6572206e6f7220617070726f76656420666f7220616c6c0000000000000000602082015250565b6000612797603883611e9c565b91506127a28261273b565b604082019050919050565b600060208201905081810360008301526127c68161278a565b9050919050565b7f45524337323155524953746f726167653a2055524920736574206f66206e6f6e60008201527f6578697374656e7420746f6b656e000000000000000000000000000000000000602082015250565b6000612829602e83611e9c565b9150612834826127cd565b604082019050919050565b600060208201905081810360008301526128588161281c565b9050919050565b7f4552433732313a207472616e736665722063616c6c6572206973206e6f74206f60008201527f776e6572206e6f7220617070726f766564000000000000000000000000000000602082015250565b60006128bb603183611e9c565b91506128c68261285f565b604082019050919050565b600060208201905081810360008301526128ea816128ae565b9050919050565b7f4552433732313a206f776e657220717565727920666f72206e6f6e657869737460008201527f656e7420746f6b656e0000000000000000000000000000000000000000000000602082015250565b600061294d602983611e9c565b9150612958826128f1565b604082019050919050565b6000602082019050818103600083015261297c81612940565b9050919050565b7f4552433732313a2062616c616e636520717565727920666f7220746865207a6560008201527f726f206164647265737300000000000000000000000000000000000000000000602082015250565b60006129df602a83611e9c565b91506129ea82612983565b604082019050919050565b60006020820190508181036000830152612a0e816129d2565b9050919050565b7f45524337323155524953746f726167653a2055524920717565727920666f722060008201527f6e6f6e6578697374656e7420746f6b656e000000000000000000000000000000602082015250565b6000612a71603183611e9c565b9150612a7c82612a15565b604082019050919050565b60006020820190508181036000830152612aa081612a64565b9050919050565b600081905092915050565b6000612abd82611e91565b612ac78185612aa7565b9350612ad7818560208601611ead565b80840191505092915050565b6000612aef8285612ab2565b9150612afb8284612ab2565b91508190509392505050565b7f4f776e61626c653a206e6577206f776e657220697320746865207a65726f206160008201527f6464726573730000000000000000000000000000000000000000000000000000602082015250565b6000612b63602683611e9c565b9150612b6e82612b07565b604082019050919050565b60006020820190508181036000830152612b9281612b56565b9050919050565b7f4552433732313a206d696e7420746f20746865207a65726f2061646472657373600082015250565b6000612bcf602083611e9c565b9150612bda82612b99565b602082019050919050565b60006020820190508181036000830152612bfe81612bc2565b9050919050565b7f4552433732313a20746f6b656e20616c7265616479206d696e74656400000000600082015250565b6000612c3b601c83611e9c565b9150612c4682612c05565b602082019050919050565b60006020820190508181036000830152612c6a81612c2e565b9050919050565b7f4e487b7100000000000000000000000000000000000000000000000000000000600052601160045260246000fd5b6000612cab82611f4c565b9150612cb683611f4c565b9250827fffffffffffffffffffffffffffffffffffffffffffffffffffffffffffffffff03821115612ceb57612cea612c71565b5b828201905092915050565b7f4552433732313a206f70657261746f7220717565727920666f72206e6f6e657860008201527f697374656e7420746f6b656e0000000000000000000000000000000000000000602082015250565b6000612d52602c83611e9c565b9150612d5d82612cf6565b604082019050919050565b60006020820190508181036000830152612d8181612d45565b9050919050565b7f4552433732313a207472616e736665722066726f6d20696e636f72726563742060008201527f6f776e6572000000000000000000000000000000000000000000000000000000602082015250565b6000612de4602583611e9c565b9150612def82612d88565b604082019050919050565b60006020820190508181036000830152612e1381612dd7565b9050919050565b7f4552433732313a207472616e7366657220746f20746865207a65726f2061646460008201527f7265737300000000000000000000000000000000000000000000000000000000602082015250565b6000612e76602483611e9c565b9150612e8182612e1a565b604082019050919050565b60006020820190508181036000830152612ea581612e69565b9050919050565b6000612eb782611f4c565b9150612ec283611f4c565b925082821015612ed557612ed4612c71565b5b828203905092915050565b7f4552433732313a20617070726f766520746f2063616c6c657200000000000000600082015250565b6000612f16601983611e9c565b9150612f2182612ee0565b602082019050919050565b60006020820190508181036000830152612f4581612f09565b9050919050565b7f4552433732313a207472616e7366657220746f206e6f6e20455243373231526560008201527f63656976657220696d706c656d656e7465720000000000000000000000000000602082015250565b6000612fa8603283611e9c565b9150612fb382612f4c565b604082019050919050565b60006020820190508181036000830152612fd781612f9b565b9050919050565b7f4552433732314d657461646174613a2055524920717565727920666f72206e6f60008201527f6e6578697374656e7420746f6b656e0000000000000000000000000000000000602082015250565b600061303a602f83611e9c565b915061304582612fde565b604082019050919050565b600060208201905081810360008301526130698161302d565b9050919050565b600081519050919050565b600082825260208201905092915050565b600061309782613070565b6130a1818561307b565b93506130b1818560208601611ead565b6130ba81611ee0565b840191505092915050565b60006080820190506130da6000830187611fe1565b6130e76020830186611fe1565b6130f46040830185612110565b8181036060830152613106818461308c565b905095945050505050565b60008151905061312081611e02565b92915050565b60006020828403121561313c5761313b611dcc565b5b600061314a84828501613111565b91505092915050565b600061315e82611f4c565b91507fffffffffffffffffffffffffffffffffffffffffffffffffffffffffffffffff82036131905761318f612c71565b5b600182019050919050565b7f4e487b7100000000000000000000000000000000000000000000000000000000600052601260045260246000fd5b60006131d582611f4c565b91506131e083611f4c565b9250826131f0576131ef61319b565b5b828204905092915050565b600061320682611f4c565b915061321183611f4c565b9250826132215761322061319b565b5b828206905092915050565b7f4e487b7100000000000000000000000000000000000000000000000000000000600052603260045260246000fdfea2646970667358221220f36cc165c6fa30687326a385de282ca9c6684607302e1ea7a7408c3a42cce01764736f6c634300080d0033",
  "immutableReferences": {},
  "source": "// SPDX-License-Identifier: MIT\r\npragma solidity ^0.8.0;\r\n\r\nimport \"@openzeppelin/contracts/token/ERC721/ERC721.sol\";\r\nimport \"@openzeppelin/contracts/utils/math/SafeMath.sol\";\r\nimport \"@openzeppelin/contracts/utils/Counters.sol\";\r\nimport \"@openzeppelin/contracts/access/Ownable.sol\";\r\nimport \"@openzeppelin/contracts/token/ERC721/extensions/ERC721URIStorage.sol\";\r\n\r\ncontract GenericNft is ERC721URIStorage, Ownable {\r\n    using Counters for Counters.Counter;\r\n    using SafeMath for uint256;\r\n\r\n    Counters.Counter private _issuedSupply;\r\n    uint256 private _maxSupply;\r\n\r\n    constructor(uint256 maxSupply, string memory name, string memory tokenId) ERC721(name, tokenId) {\r\n        _maxSupply = maxSupply;\r\n        _issuedSupply.increment();\r\n    }\r\n\r\n    function mintNFT(address recipient, string calldata tokenURI, uint256 assetId)\r\n        external onlyOwner\r\n        returns (uint256)\r\n    {\r\n        require(_maxSupply >= _issuedSupply.current(), \"The template's max supply has already been reached\");\r\n\r\n        _issuedSupply.increment();\r\n\r\n        _mint(recipient, assetId);\r\n        _setTokenURI(assetId, tokenURI);\r\n\r\n        return assetId;\r\n    }\r\n\r\n    function setTokenURI(uint256 assetId, string calldata tokenURI) external onlyOwner {\r\n        require(_exists(assetId), \"ERC721URIStorage: URI set of nonexistent token\");\r\n        _setTokenURI(assetId, tokenURI);\r\n    }\r\n\r\n}\r\n",
  "sourcePath": "H:\\LaunchZero\\SolidityTests\\contracts\\GenericNft.sol",
  "compiler": {
    "name": "solc",
    "version": "0.8.13+commit.abaa5c0e.Emscripten.clang"
  },
  "schemaVersion": "3.4.6",
  "updatedAt": "2022-04-07T21:08:15.838Z",
  "networkType": "ethereum",
  "devdoc": {
    "kind": "dev",
    "methods": {
      "approve(address,uint256)": {
        "details": "See {IERC721-approve}."
      },
      "balanceOf(address)": {
        "details": "See {IERC721-balanceOf}."
      },
      "getApproved(uint256)": {
        "details": "See {IERC721-getApproved}."
      },
      "isApprovedForAll(address,address)": {
        "details": "See {IERC721-isApprovedForAll}."
      },
      "name()": {
        "details": "See {IERC721Metadata-name}."
      },
      "owner()": {
        "details": "Returns the address of the current owner."
      },
      "ownerOf(uint256)": {
        "details": "See {IERC721-ownerOf}."
      },
      "renounceOwnership()": {
        "details": "Leaves the contract without owner. It will not be possible to call `onlyOwner` functions anymore. Can only be called by the current owner. NOTE: Renouncing ownership will leave the contract without an owner, thereby removing any functionality that is only available to the owner."
      },
      "safeTransferFrom(address,address,uint256)": {
        "details": "See {IERC721-safeTransferFrom}."
      },
      "safeTransferFrom(address,address,uint256,bytes)": {
        "details": "See {IERC721-safeTransferFrom}."
      },
      "setApprovalForAll(address,bool)": {
        "details": "See {IERC721-setApprovalForAll}."
      },
      "supportsInterface(bytes4)": {
        "details": "See {IERC165-supportsInterface}."
      },
      "symbol()": {
        "details": "See {IERC721Metadata-symbol}."
      },
      "tokenURI(uint256)": {
        "details": "See {IERC721Metadata-tokenURI}."
      },
      "transferFrom(address,address,uint256)": {
        "details": "See {IERC721-transferFrom}."
      },
      "transferOwnership(address)": {
        "details": "Transfers ownership of the contract to a new account (`newOwner`). Can only be called by the current owner."
      }
    },
    "version": 1
  },
  "userdoc": {
    "kind": "user",
    "methods": {},
    "version": 1
  }
}